{
  "contractName": "board",
  "abi": [
    {
      "inputs": [],
      "stateMutability": "nonpayable",
      "type": "constructor"
    },
    {
      "inputs": [
        {
          "internalType": "string",
          "name": "_title",
          "type": "string"
        },
        {
          "internalType": "string",
          "name": "_content",
          "type": "string"
        },
        {
          "internalType": "address",
          "name": "_writer",
          "type": "address"
        },
        {
          "internalType": "string",
          "name": "_image",
          "type": "string"
        },
        {
          "internalType": "string",
          "name": "_create_dt",
          "type": "string"
        }
      ],
      "name": "add_contens",
      "outputs": [],
      "stateMutability": "nonpayable",
      "type": "function"
    },
    {
      "inputs": [],
      "name": "view_content_no",
      "outputs": [
        {
          "internalType": "uint256",
          "name": "",
          "type": "uint256"
        }
      ],
      "stateMutability": "view",
      "type": "function",
      "constant": true
    },
    {
      "inputs": [
        {
          "internalType": "uint256",
          "name": "_no",
          "type": "uint256"
        }
      ],
      "name": "view_content",
      "outputs": [
        {
          "internalType": "string",
          "name": "",
          "type": "string"
        },
        {
          "internalType": "string",
          "name": "",
          "type": "string"
        },
        {
          "internalType": "address",
          "name": "",
          "type": "address"
        },
        {
          "internalType": "string",
          "name": "",
          "type": "string"
        },
        {
          "internalType": "string",
          "name": "",
          "type": "string"
        }
      ],
      "stateMutability": "view",
      "type": "function",
      "constant": true
    }
  ],
  "bytecode": "0x608060405234801561001057600080fd5b50336000806101000a81548173ffffffffffffffffffffffffffffffffffffffff021916908373ffffffffffffffffffffffffffffffffffffffff1602179055506000600181905550610d6a806100686000396000f3fe608060405234801561001057600080fd5b50600436106100415760003560e01c80631f2008ab146100465780633865e3d81461007a578063c4cbf9e914610096575b600080fd5b610060600480360381019061005b9190610590565b6100b4565b60405161007195949392919061068e565b60405180910390f35b610094600480360381019061008f919061085e565b6103a0565b005b61009e61053c565b6040516100ab9190610958565b60405180910390f35b606080600060608060006002600088815260200190815260200160002060000180546100df906109a2565b80601f016020809104026020016040519081016040528092919081815260200182805461010b906109a2565b80156101585780601f1061012d57610100808354040283529160200191610158565b820191906000526020600020905b81548152906001019060200180831161013b57829003601f168201915b505050505090506000600260008981526020019081526020016000206001018054610182906109a2565b80601f01602080910402602001604051908101604052809291908181526020018280546101ae906109a2565b80156101fb5780601f106101d0576101008083540402835291602001916101fb565b820191906000526020600020905b8154815290600101906020018083116101de57829003601f168201915b505050505090506000600260008a815260200190815260200160002060020160009054906101000a900473ffffffffffffffffffffffffffffffffffffffff1690506000600260008b81526020019081526020016000206003018054610260906109a2565b80601f016020809104026020016040519081016040528092919081815260200182805461028c906109a2565b80156102d95780601f106102ae576101008083540402835291602001916102d9565b820191906000526020600020905b8154815290600101906020018083116102bc57829003601f168201915b505050505090506000600260008c81526020019081526020016000206004018054610303906109a2565b80601f016020809104026020016040519081016040528092919081815260200182805461032f906109a2565b801561037c5780601f106103515761010080835404028352916020019161037c565b820191906000526020600020905b81548152906001019060200180831161035f57829003601f168201915b50505050509050848484848499509950995099509950505050505091939590929450565b60008054906101000a900473ffffffffffffffffffffffffffffffffffffffff1673ffffffffffffffffffffffffffffffffffffffff163373ffffffffffffffffffffffffffffffffffffffff161461042e576040517f08c379a000000000000000000000000000000000000000000000000000000000815260040161042590610a1f565b60405180910390fd5b8460026000600154815260200190815260200160002060000190816104539190610beb565b508360026000600154815260200190815260200160002060010190816104799190610beb565b508260026000600154815260200190815260200160002060020160006101000a81548173ffffffffffffffffffffffffffffffffffffffff021916908373ffffffffffffffffffffffffffffffffffffffff1602179055508160026000600154815260200190815260200160002060030190816104f69190610beb565b5080600260006001548152602001908152602001600020600401908161051c9190610beb565b506001600081548092919061053090610cec565b91905055505050505050565b6000600154905090565b6000604051905090565b600080fd5b600080fd5b6000819050919050565b61056d8161055a565b811461057857600080fd5b50565b60008135905061058a81610564565b92915050565b6000602082840312156105a6576105a5610550565b5b60006105b48482850161057b565b91505092915050565b600081519050919050565b600082825260208201905092915050565b60005b838110156105f75780820151818401526020810190506105dc565b60008484015250505050565b6000601f19601f8301169050919050565b600061061f826105bd565b61062981856105c8565b93506106398185602086016105d9565b61064281610603565b840191505092915050565b600073ffffffffffffffffffffffffffffffffffffffff82169050919050565b60006106788261064d565b9050919050565b6106888161066d565b82525050565b600060a08201905081810360008301526106a88188610614565b905081810360208301526106bc8187610614565b90506106cb604083018661067f565b81810360608301526106dd8185610614565b905081810360808301526106f18184610614565b90509695505050505050565b600080fd5b600080fd5b7f4e487b7100000000000000000000000000000000000000000000000000000000600052604160045260246000fd5b61073f82610603565b810181811067ffffffffffffffff8211171561075e5761075d610707565b5b80604052505050565b6000610771610546565b905061077d8282610736565b919050565b600067ffffffffffffffff82111561079d5761079c610707565b5b6107a682610603565b9050602081019050919050565b82818337600083830152505050565b60006107d56107d084610782565b610767565b9050828152602081018484840111156107f1576107f0610702565b5b6107fc8482856107b3565b509392505050565b600082601f830112610819576108186106fd565b5b81356108298482602086016107c2565b91505092915050565b61083b8161066d565b811461084657600080fd5b50565b60008135905061085881610832565b92915050565b600080600080600060a0868803121561087a57610879610550565b5b600086013567ffffffffffffffff81111561089857610897610555565b5b6108a488828901610804565b955050602086013567ffffffffffffffff8111156108c5576108c4610555565b5b6108d188828901610804565b94505060406108e288828901610849565b935050606086013567ffffffffffffffff81111561090357610902610555565b5b61090f88828901610804565b925050608086013567ffffffffffffffff8111156109305761092f610555565b5b61093c88828901610804565b9150509295509295909350565b6109528161055a565b82525050565b600060208201905061096d6000830184610949565b92915050565b7f4e487b7100000000000000000000000000000000000000000000000000000000600052602260045260246000fd5b600060028204905060018216806109ba57607f821691505b6020821081036109cd576109cc610973565b5b50919050565b7f4f6e6c79206f776e65722063616e2063616c6c2066756e6374696f6e00000000600082015250565b6000610a09601c836105c8565b9150610a14826109d3565b602082019050919050565b60006020820190508181036000830152610a38816109fc565b9050919050565b60008190508160005260206000209050919050565b60006020601f8301049050919050565b600082821b905092915050565b600060088302610aa17fffffffffffffffffffffffffffffffffffffffffffffffffffffffffffffffff82610a64565b610aab8683610a64565b95508019841693508086168417925050509392505050565b6000819050919050565b6000610ae8610ae3610ade8461055a565b610ac3565b61055a565b9050919050565b6000819050919050565b610b0283610acd565b610b16610b0e82610aef565b848454610a71565b825550505050565b600090565b610b2b610b1e565b610b36818484610af9565b505050565b5b81811015610b5a57610b4f600082610b23565b600181019050610b3c565b5050565b601f821115610b9f57610b7081610a3f565b610b7984610a54565b81016020851015610b88578190505b610b9c610b9485610a54565b830182610b3b565b50505b505050565b600082821c905092915050565b6000610bc260001984600802610ba4565b1980831691505092915050565b6000610bdb8383610bb1565b9150826002028217905092915050565b610bf4826105bd565b67ffffffffffffffff811115610c0d57610c0c610707565b5b610c1782546109a2565b610c22828285610b5e565b600060209050601f831160018114610c555760008415610c43578287015190505b610c4d8582610bcf565b865550610cb5565b601f198416610c6386610a3f565b60005b82811015610c8b57848901518255600182019150602085019450602081019050610c66565b86831015610ca85784890151610ca4601f891682610bb1565b8355505b6001600288020188555050505b505050505050565b7f4e487b7100000000000000000000000000000000000000000000000000000000600052601160045260246000fd5b6000610cf78261055a565b91507fffffffffffffffffffffffffffffffffffffffffffffffffffffffffffffffff8203610d2957610d28610cbd565b5b60018201905091905056fea26469706673582212208b34b368c7d730e2c6337a1390afa0ec74e888b8daaa3dc819864fefdab4373b64736f6c63430008130033",
  "immutableReferences": {},
  "source": "//  SPDX=License-Identifier: MIT\r\npragma solidity =0.8.19;\r\n\r\ncontract board {\r\n    // owner   \r\n    address internal owner;\r\n    //   \r\n    uint internal content_no;\r\n\r\n    //  \r\n    struct content_info {\r\n        string title;\r\n        string content;\r\n        address writer;\r\n        string image;\r\n        string create_dt;\r\n    }\r\n\r\n    // mapping  \r\n    mapping(uint => content_info) internal contents;\r\n\r\n    // deploy      ()\r\n    constructor() {\r\n        owner = msg.sender;\r\n        content_no = 0;\r\n    }\r\n\r\n    // modifier  :     \r\n    modifier onlyOwner() {\r\n        require(msg.sender == owner, \"Only owner can call function\");\r\n        _;\r\n    }\r\n    modifier increament() {\r\n        _;\r\n        content_no++;\r\n    }\r\n\r\n    //    \r\n    function add_contens(\r\n        string memory _title,\r\n        string memory _content,\r\n        address _writer,\r\n        string memory _image,\r\n        string memory _create_dt\r\n    ) public onlyOwner increament {\r\n        // mapping data  .\r\n        contents[content_no].title = _title;\r\n        contents[content_no].content = _content;\r\n        contents[content_no].writer = _writer;\r\n        contents[content_no].image = _image;\r\n        contents[content_no].create_dt = _create_dt;\r\n    }\r\n\r\n    //    \r\n    function view_content_no() public view returns (uint) {\r\n        return (content_no);\r\n    }\r\n\r\n    //   \r\n    function view_content(\r\n        uint _no\r\n    )\r\n        public\r\n        view\r\n        returns (\r\n            string memory,\r\n            string memory,\r\n            address,\r\n            string memory,\r\n            string memory\r\n        )\r\n    {\r\n        string memory title = contents[_no].title;\r\n        string memory content = contents[_no].content;\r\n        address writer = contents[_no].writer;\r\n        string memory image = contents[_no].image;\r\n        string memory create_dt = contents[_no].create_dt;\r\n        return (title, content, writer, image, create_dt);\r\n    }\r\n}\r\n",
  "sourcePath": "C:\\apps\\Blockchain\\blockchain06\\sample_project\\contracts\\board.sol",
  "compiler": {
    "name": "solc",
    "version": "0.8.19+commit.7dd6d404.Emscripten.clang"
  },
  "schemaVersion": "3.4.14",
  "updatedAt": "2023-06-28T02:30:47.349Z",
  "networkType": "ethereum",
  "devdoc": {
    "kind": "dev",
    "methods": {},
    "version": 1
  },
  "userdoc": {
    "kind": "user",
    "methods": {},
    "version": 1
  }
}